HMINISTERIO DEL PODER POPULAR PARA LAS CO010205522800000499480105/06/12000000115200003291 
003333333333333333333000002560000770BENITEZ, MARISOL                        0010543214003291  
011111111111111111111000003200000770LUIS DE LA CRUZ, YORMAN                 0014122231003291  
003333333333333333333000002560000770BENITEZ, MARISOL                        0010543214003291  
011111111111111111111000003200000770LUIS DE LA CRUZ, YORMAN                 0014122231003291  
