HFundación de Capacitación e Innovación p010205522200000649070107/10/13000000475000003291 
001020346500000120126000002500000770HERNANDEZ CONZALEZ, ANGEL CARMELO       0005464702003291  
001020364300000067085000002500000770BRICEÑO MONTILLA, RAMON EMILIO          0009167277003291  
001020163270108321736000005000000770MARQUEZ PEROZA, JOSE ALEXANDER          0010987765003291  
001020435660000089270000002500000770ESPINOZA RIVAS, JIMMY JOSE              0011192771003291  
001020114490000185666000002500000770MARTINEZ IZARRA, MIRILDA DE LOS RIOS    0011226936003291  
001020387230000071644000005000000770GUERRA BOGADY, SUSANA                   0011535235003291  
001020313920000043915000005000000770SOSA SOSA, MILECCY BEATRIZ              0012240536003291  
001020453410000143158000002500000770SUAREZ VELASQUEZ, DAYANA ALEJANDRA      0012398175003291  
001020365110000091213000002500000770PETIT SUAREZ, CESAR AUGUSTO             0012725311003291  
001020364370000066934000002500000770ALBORNOZ FARFAN, NICSI TIBISAY          0013733835003291  
001020453450000143190000002500000770PAREDES CRISTANCHO, ROGER               0013900133003291  
001020106360000041548000002500000770PALACIOS GUZMAN, MARIA ISABEL           0015664942003291  
001020858190000009328000002500000770AVENIA CAMPO, FANNER OSWALDO            0016041506003291  
001020858180000011895000002500000770ROJAS CERMEÑO, ADOLFO JOSE              0016416918003291  
001020336890000087926000002500000770ALVARADO SILVA, DANIEL FELIPE IV        0017394605003291  
001020445300000074719000002500000770GUAYAPERO MEDINA, DAYANA CAROLINA       0017746006003291  
