HFundación de Capacitación e Innovación p010205522200000649070109/09/13000015483087803291 
101020311240000017158000002428521770SALAZAR FLORES, SAUL RAMON              0007005824003291  
101020311220103121644000002470891770SEQUERA, FREDDY JOSE                    0007126225003291  
101020116100107352819000002470891770TORREALBA ROMAN, JESUS                  0008783495003291  
101020116120107352776000002513261770MORALES, JOSE YNES                      0008821371003291  
101020116160107352774000002513261770TOBAR, BASILIO ELICIO                   0008824178003291  
101020116140107352775000002513261770FLORES MORALES, LUIS ALBERTO            0008825692003291  
101020219110000131131000006064901770ALVAREZ RONDON, WERNER GREGORIO         0009149194003291  
101020311280103121994000002682741770PEREZ PEÑALVER, RAUL ENRIQUE            0010070943003291  
101020116190107352778000002513261770TOVAR, FRANCISCO GERMAN                 0010340397003291  
101020438170100081905000003941321770MUJICA PEREZ, GLORIA LILIANA            0010876325003291  
101020466690100060942000004110801770MOTA ROMERO, JUAN CARLOS                0011121473003291  
101020311210103121645000002470891770MONTOYA, ROMULO ANTONIO                 0011270304003291  
101020114420106378031000004110801770FERNANDEZ FERNANDEZ, IRWING EFREN       0012030159003291  
101020346540106623227000004280281770LANDAETA RIVERO, BIKYS ARLENIS          0012240457003291  
101020311220103121949000002428521770BRIZUELA, CARLOS LUIS                   0012773849003291  
101020311270103121650000002470891770DURANT, CARLOS ALBERTO                  0013388612003291  
101020165970100028696000004110801770GIMENEZ VARGAS, JOSE BILEUDIS           0015493623003291  
101020617160100001989000003941321770CENTENO RIVAS, SANDRA  JOSEFINA         0016388290003291  
101020311280103120716000002428521770MARTINEZ JAIMES, JOSE DAVID             0016455369003291  
101020345710100023677000003983691770PIÑA OCANDO, DESSIREE CAROLINA          0016621222003291  
101020453420100347432000003941321770HERNANDEZ DIAZ, REINA ALEJANDRA         0017404434003291  
101020438110100073162000003941321770GARCIA FARIAS, LUIS ENRIQUE             0017408002003291  
101020438150100075863000003983691770GONZALEZ GONZALEZ, EDUARD NICOLAS       0018213428003291  
101020440210109810594000003941321770SILVA BRAVO, AUDELIS DEL CARMEN         0018267688003291  
101020311210103114816000003941321770ORTEGA NUÑEZ, EULIS LILIELBYS           0018437248003291  
101020507790100017405000003983691770FERNANDEZ MALAVE, ANGEL JESUS           0019315059003291  
101020311270103121647000002470891770ALVAREZ FLORES, JORGE MANUEL            0019410025003291  
101020346500106616550000003941321770LOZADA BLANCO, LEDISMAR CAROLINA        0019430077003291  
101020674090100001205000003941321770SANABRIA SANABRIA, MARIA BEATRIZ        0020023381003291  
101020116160107353052000002470891770GUARATE MORALES, SIXTO JOSE             0020355001003291  
001020457760000091064000004110800770DIAZ BONA, JUAN CLEMENTE                0001566153003291  
001020457710000028244000004958180770MORENO DADURE, INMER GALERIO            0001567524003291  
001020369410000077978000005000550770GONZALEZ DURAN, GUSTAVO COROMOTO        0003520588003291  
001020369410000077981000004153170770ROJAS CHAVEZ, HENRRY                    0003814410003291  
001020346560000120100000004958180770ZAMBRANO COLMENARES, GLADYS LUCIA       0003869535003291  
001020151920000091860000004068430770BRICEÑO BASTIDAS, JOSE CIPRIANO         0003909799003291  
001020365110000091132000004068430770AULAR MUSSLE, JESUS ANTONIO             0003911362003291  
001020222140000099134000005057820770PILLE ALVARADO, RAFAEL JACOBO           0003950103003291  
001020112890000055220000004619230770GIL HERNANDEZ, CARMELO DE JESUS         0004070740003291  
001020339280000083564000005871180770PENOTT DE MONASTERIOS, YNZA CRUZ        0004194789003291  
001020219110000131047000004068430770NUÑEZ MALDONADO, NESTOR ORLANDO         0004211037003291  
001020311220000029117000002470890770MIJARES, GUSTAVO ALBERTO                0004272517003291  
001020369450000077606000004237910770VELAZQUEZ, ALEXIS ANTONIO               0004304050003291  
001020328780000042806000004195540770SUAREZ SOLARTE, ANTONIO RAMON           0004659975003291  
001020466680000086422000004068430770DELGADO, JOSE EULOGIO                   0004667036003291  
001020222150000098931000002979320770RANGEL DE MARTINEZ, CARMEN ISABEL       0004672974003291  
001020365100000096470000006077290770SANCHEZ QUERALES, FELIX DAVID           0004728238003291  
001020339200000083577000005574590770LAMPE ZAVALA, MARIA CONCEPCION          0004786132003291  
001020365140000091158000004068430770RAMONES BRACHO, CARMEN TERESA           0004788153003291  
001020387230000071725000006276740770GONZALEZ AMARISTA, AQUILES RAFAEL       0004907549003291  
001020435660000089432000004068430770GONZALEZ TORO, RUFINO ANTONIO           0004929401003291  
001020435680000089445000004068430770MARIN FONTECHO, LUIS ARLEI              0004931049003291  
001020435600000089458000004703970770MARTINEZ OLIVARES, IRIS COROMOTO        0004978272003291  
001020151920000091857000005532220770LIMA RUIZ, JAIRO SING                   0005044795003291  
001020328700000042819000004110800770MONTERO GUEVERE, RAFAEL DANILO          0005069091003291  
001020369470000077619000004068430770VIELMA BALESTRINI, HERMES RAMON         0005107340003291  
001020151910000091844000004068430770PEÑA GUERRERO, JOSE LUIS                0005204977003291  
001020114410000185611000004068430770ECARRI HENRIQUEZ, ARQUIMEDEZ ANTONIO    0005210220003291  
001020219140000131076000004068430770CARRILLO PARRA, VICTOR FRANCISCO        0005324647003291  
001020369470000077622000006319110770CONTRERAS RAMIREZ, ALBA LUZ             0005326258003291  
001020219160000131089000004788710770CASTELLANOS OCHOA, PABLO JOSE           0005326533003291  
001020369410000077648000004492120770VALDERRAMA, JOSEFA ANTONIA              0005349863003291  
001020369410000077651000004068430770MONTILLA AVILA, ANA VICTORIA            0005354669003291  
001020112810000055068000004068430770PEREZ NUÑEZ, MARCOS RAMIRO              0005551536003291  
001020151970000091815000004320920770VALLES ANAYA, DELIA MARGARITA           0005615159003291  
001020165910000037798000005591740770RODRIGUEZ ROJAS, ANTULIO JOSE           0005617582003291  
001020435600000089461000004068430770ARAUJO PORRAS, RAFAEL                   0005631756003291  
001020151950000091802000004195540770SALAS RAMIREZ, JOSE GREGORIO            0005678233003291  
001020560370000029560000004068430770MALDONADO DELGADO, DANIEL ISLANDER      0005682611003291  
001020438140000084929000004026060770DURREGO AZOCAR, LUIS RAMON              0005708993003291  
001020369440000077680000005610920770ECHEVERRIA UZCATEGUI, ALEX SAMUEL       0005766217003291  
001020369460000077693000004068430770BRICEÑO AZUAJE, EDGAR                   0005767063003291  
001020369470000077703000004068430770MONTILLA RUZA, IRAIMA DEL CARMEN        0005768528003291  
001020533670000023252000004110800770HERNANDEZ NUÑEZ, JOSE GREGORIO          0005780922003291  
001020364320000067030000004068430770OCHOA GIL, ORLANDO DE JESUS             0005781368003291  
001020369410000077732000004068430770MORENO RAGA, FLOR CUSTODIA              0005782230003291  
001020112810000055071000004068430770GONZALEZ GUEDEZ, LUZMILA ISABEL         0005933536003291  
001020114430000185624000004068430770RODRIGUEZ MOYA, FREDDY JOSE             0006021822003291  
001020501860000495699000006950670770ARRIETA MOYA, MIRNA DEL VALLE           0006179007003291  
001020311210000029670000002428520770BRICEÑO PEÑA, JOSE EDUARDO              0006345176003291  
001020222120000098342000004944970770MONTAÑO CARDONA, MILAGROS COROMOTO      0006446324003291  
001020435610000089474000004068430770MOLINA GALLARDO, JOSE AVILIO            0006532926003291  
001020311280000029968000002428520770NAVAS, CARMEN BEATRIZ                   0006602622003291  
001020311240000029696000002470890770MENDOZA GODOY, TORIBIO JOSE             0006602950003291  
001020112820000055084000004068430770SEQUERA LOZADA, VIOLETA JOSEFINA        0006652924003291  
001020438180000084958000005609470770ROJAS ASTUDILLO, ERNESTO MERQUIADES     0006716462003291  
001020461510000006460000003983690770MORA CORREA, ZULEIKA BEATRIZ            0006897785003291  
001020438180000084961000006234370770MARTINEZ MORALES, MIGUEL ANTONIO        0006952333003291  
001020438110000077790000004068430770ROSAL RANGEL, EDITH DOLORES             0006955488003291  
001020222140000098436000006526980770SUAREZ MORENO, RAMON EULICES            0006965687003291  
001020114450000185637000004068430770ARAMENDI SANCHEZ, JOSE GABRIEL          0007127720003291  
001020429130000105361000004068430770MORALES ALVAREZ, JOSE GREGORIO          0007175676003291  
001020346510000120456000004070460770ALAS DE BRAVO, VIVIAN ESTILITA          0007247759003291  
001020112840000055097000006757040770ESCALONA UNDA, ZAYDA COROMOTO           0007305685003291  
001020112870000055123000004068430770LOZADA IRAUSQUIN, MIGUEL ANGEL          0007333020003291  
001020112810000055149000004068430770LOPEZ HERNANDEZ, NINOSKA MARIA          0007368304003291  
001020112810000055152000004068430770VALERA JIMENEZ, MIRIAM COROMOTO         0007409039003291  
001020346540000120485000004449750770ORELLANA, UBENCIO ANTONIO               0007469458003291  
001020112840000055181000004068430770SOTO TROCEL, HAIDEE JOSEFINA            0007506535003291  
001020365160000091174000004068430770TORRES HURTADO, ARQUIMEDES JOEL         0007508658003291  
001020387270000071754000004068430770AULAR SERRANO, BETTINA DEL CARMEN       0007534262003291  
001020311210000029191000002899970770AGUIAR, ANGEL MARCELINO                 0007584667003291  
001020328790000043588000004195540770LINARES IZZA, VIOLEXIA                  0007899709003291  
001020146210000081595000002470890770PEÑA GIL, PEDRO PABLO                   0008003691003291  
001020369440000077761000005738030770GARCIA LABRADOR, PAULA                  0008023514003291  
001020222160000098533000007053630770TORRES DIAZ, JOSE JAVIER                0008024106003291  
001020501810000630661000004245160770PEREZ FLORES, JOSE FERMIN               0008024810003291  
001020151900000091268000005447490770ALVARADO SALAS, LISANDRO BENJAMIN       0008039159003291  
001020346550000124009000004322650770LARES GUEVARA, LUIS JOHEL               0008065244003291  
001020151900000091433000004788710770ESCALANTE TAMAYO, JOSE OMAR             0008073686003291  
001020151910000091446000004068430770SUBDIAGA QUIÑONES, JOSE GREGORIO        0008075103003291  
001020151930000091459000004068430770ESCALANTE TAMAYO, GUSTAVO               0008080193003291  
001020151930000091462000004449750770PAREDES RANGEL, PEDRO ALQUIADES         0008081486003291  
001020219160000131092000004492120770PARRA GUTIERREZ, ADALBERTO              0008090735003291  
001020686390000014999000004026060770TORRES ALVIAREZ, LIGIA MARIA            0008101895003291  
001020533690000023265000004068430770GAMBOA VILLAROEL, JESUS EDUARDO         0008392611003291  
001020438180000085009000004068430770SALAZAR MARIN, LUISA ISABELINA          0008425160003291  
001020438180000085012000004068430770FARIAS, AUGUSTO JOSE                    0008481242003291  
001020365180000091190000004068430770TORTOLANI YAGUA, ALDRIN ANTONIO         0008518529003291  
001020364380000067069000004068430770FLORES SEQUERA, MARTIN ANTONIO          0008674749003291  
001020151950000091475000004068430770VIVAS VIVAS, JOSE JAVIER                0008710098003291  
001020116150000034322000002470890770ARANA, RIGOBERTO                        0008789237003291  
001020116170000036375000002428520770ZAPATA CARMONA, RICHARD                 0008820540003291  
001020116140000034474000002513260770GUARATE, ORLANDO MARTIN                 0008826220003291  
001020116180000035606000002470890770CARRASQUEL PERAZA, EMILIO GREGORIO      0008828920003291  
001020429100000105413000004026060770MARCANO SALAZAR, MARISABEL              0008892322003291  
001020457780000091080000004068430770RODRIGUEZ RIVAS, MERCEDES MARGARITA     0008947700003291  
001020151970000091491000004068430770TERAN MILANEZ, NORIS JOSEFINA           0009013234003291  
001020219110000131128000004619230770MORA SANCHEZ, SIMON OSVALDO             0009128303003291  
001020346570000120511000004492120770CASTILLO CASTILLO, JOSE ANTONIO         0009250725003291  
001020346590000120524000006034610770MARCHENA MEJIAS, NORAIMA DEL CARMEN     0009258179003291  
001020369480000077787000006896710770GOMEZ MORENO, MARISELA                  0009319483003291  
001020369480000077790000004068430770RONDON MORENO, OMAIRA JOSEFINA          0009321761003291  
001020151980000091501000004068430770GUERRERO JAIMES, OMAR ENRIQUE           0009339673003291  
001020435660000089186000004068430770DUERTO RIOS, MEDARDO ALFREDO            0009384916003291  
001020116110000036249000002470890770BAUTISTA, LUIS ALFONSO                  0009462960003291  
001020151930000091543000004068430770GUTIERREZ ALARCON, WILLIANM ANTONIO     0009475860003291  
001020151950000091556000004068430770SUAREZ, CARLOS ANDRES                   0009479932003291  
001020373290000103101000003941320770LEAL MOLINA, ZAIDA MARGARITA            0009499990003291  
001020339240000083616000005713820770LEMUS CORDOVA, PUBLIO ANTONIO           0009528873003291  
001020222150000097990000006714670770RAMIREZ GALINDEZ, ANIBAL JOSE           0009603707003291  
001020112860000055356000004068430770TORREALBA, ZULMA REGULA                 0009608658003291  
001020112880000055369000004068430770MARCHAN COLMENAREZ, NEPTALI JOSE        0009609819003291  
001020112810000055398000002598000770GARCIA, MIRIAN CRISTINA                 0009624161003291  
001020222110000098009000005816720770GUZMAN RODRIGUEZ, YEXSICA MARIA         0009679272003291  
001020339290000083409000004068430770YANEZ RAMONES, RUTH JACKELINE           0009809732003291  
001020369410000077813000004068430770URBINA DIAZ, ADILSON ORLIS              0010037564003291  
001020369420000077826000004068430770FARIA PEREZ, OSWALDO RAFAEL             0010039240003291  
001020313910000029272000004068430770NUÑEZ QUINTERO, ALEXI JOSE              0010052342003291  
001020346530000120155000004110800770MONTILLA RAGA, ALVARO EMETERIO          0010054140003291  
001020346550000120168000004407380770TORREALBA ORELLANA, RAUL ANTONIO        0010055708003291  
001020346550000120171000004237910770BORJAS DIAZ, DIGNORA MERCEDES           0010058690003291  
001020151970000091569000005390150770ALBORNOZ MOLINA, NELSON ENRIQUE         0010104846003291  
001020151970000091572000004407380770CALDERON, CINDY MARGOTH                 0010105476003291  
001020151990000091585000004407380770URREA GUERRERO, ANGEL LEONARDO          0010108744003291  
001020346570000120184000004449750770DIAZ TORRES, JICELA                     0010259891003291  
001020387210000071628000003604400770LOPEZ ALVAREZ, MARTINA DEL CARMEN       0010294999003291  
001020364320000066895000004068430770ROMERO TOVAR, JULIO CESAR               0010323207003291  
001020365190000091200000004026060770JIMENEZ SALCEDO, SAMIR ELITH            0010368501003291  
001020311200103121492000002470890770RODRIGUEZ, JOSE GREGORIO                0010373718003291  
001020222130000098106000005774350770GONZALEZ CALDERIN, CARLOS ALBERTO       0010380314003291  
001020345720000123165000003983690770POLANCO DIAZ, NEREIDA JOSEFINA          0010423983003291  
001020438170000084709000004068430770LOPEZ CHACON, PEDRO CELESTINO           0010468469003291  
001020222120000098180000004148940770CASTRO RANGEL, VILMA CECILIA            0010548928003291  
001020435690000089209000004110800770PAREDES PEÑA, CARLOS ANTONIO            0010556108003291  
001020435690000089212000004068430770QUIÑONES DE CASTILLO, ANA TERESA        0010556958003291  
001020435640000089254000004237910770ROJAS RAMIREZ, JOSE GREGORIO            0010562615003291  
001020330930000095507000003983690770AGUILAR GUTIERREZ, YVAN EDUARDO         0010644358003291  
001020222190000098232000005489860770ROMAN TOMEDES, MARCO JOSE               0010664744003291  
001020116120000034461000002470890770PARRA, BALERIO                          0010672266003291  
001020339240000134015000004153170770COLINA CEDEÑO, JOSE ALEJANDRO           0010703576003291  
001020346500000120207000004322650770RODRIGUEZ ORTEGA, CARMEN LINA           0010729639003291  
001020311210000034416000002428520770HURTADO ORTEGA, ZENAIDA                 0010819305003291  
001020151910000091611000004068430770ZERPA DE GUILLEN, NINFA ELENA           0010898521003291  
001020369440000077842000004068430770MENDEZ GRATEROL, JUAN CARLOS            0010907886003291  
001020112820000055408000004407380770GOMEZ, DILZA COROMOTO                   0010955205003291  
001020858160000008853000003941320770FLORES SEQUERA, ORLANDO JOSE            0010993525003291  
001020116190000034432000002470890770ARRIECHI RODRIGUEZ, JOSE GREGORIO       0011050741003291  
001020116130000036430000002470890770CHAVEZ ARREAZA, YOVANNY JAVIER          0011051822003291  
001020339220000083441000004153170770ZARRAGA SUAREZ, DIOSELINA               0011141545003291  
001020466610000086451000004068430770TAQUIVA, HUMBERTO DE JESUS              0011186593003291  
001020328770000042880000004068430770FERNANDEZ CHIRINO, NILSON ANTONIO       0011256133003291  
001020346500000120210000002470890770RODRIGUEZ, MARIA ELENA                  0011270766003291  
001020311210000029997000002428520770MEDINA DIAZ, CESAR AUGUSTO              0011270788003291  
001020453430000143255000004252800770DIAZ CORONADO, ANGELES SUSANA           0011378884003291  
001020438110000084738000006022530770MALAVE, OSCAR ENRIQUE                   0011382488003291  
001020222160000097673000005816720770JIMENEZ MEJIAS, ALFONSO ENRIQUE         0011430474003291  
001020453450000143268000004068430770SALGADO COVA, JOSE LUIS                 0011446884003291  
001020369460000077855000004068430770MARQUINA SALAZAR, JOSE EZEQUIEL         0011466940003291  
001020339240000083454000004068430770RIVERO DUNO, IRAIDELY JOSEFINA          0011477819003291  
001020219130000143284000004110800770ORTIZ ROJAS, CARLOS AUGUSTO             0011500568003291  
001020152710000061942000004068430770RIVAS OLIVEROS, RONEL AURELIO           0011527170003291  
001020112820000055411000004068430770LINAREZ PEREZ, OLIMPIA RAMONA           0011583200003291  
001020369480000077868000004068430770MORENO ALBARRAN, CARLOS ANDRES          0011612103003291  
001020372470000045528000003983690770TUA LOPEZ, NAILE MARCOLINA              0011693790003291  
001020387250000071657000004068430770INFANTE DE MARTINEZ, LURVIS ENCARNACION 0011730402003291  
001020112840000055424000004068430770RIERA SANCHEZ, JESUS ENRIQUE            0011745387003291  
001020222120000097725000007096000770LOAIZA GONZALEZ, NINOSKA DEL VALLE      0011747702003291  
001020461520000035240000004110800770URBINA VALERO, MARIAIDA                 0011926166003291  
001020222180000097767000004252800770MELENDEZ LOPEZ, JESUS ALEXANDER         0011993427003291  
001020311270000029476000002428520770FREITEZ ALVARADO, RAFAEL SIMON          0012078122003291  
001020453480000143132000004068430770MOTA, AMARILIS JOSEFINA                 0012155911003291  
001020453400000143145000003193410770GIL MOROCOIMA, MARIA JOSE               0012198619003291  
001020435610000089306000004068430770CARPIO CRESPO, SILVIA CATHERINE         0012207049003291  
001020211630000141215000004068430770GARCIA LEAL, PEDRO MANUEL               0012243421003291  
001020311290000030562000002428520770NAVAS NUÑEZ, ALFREDO JOSE               0012284669003291  
001020146230000081621000002470890770ZAPATA CALMONA, YOEL                    0012310071003291  
001020112860000055437000004068430770ROJAS, YENDRI YADIRA                    0012433294003291  
001020112860000055440000004937480770ALAYON DUBOIS, KATHERINE                0012453415003291  
001020435620000089319000004153170770BERRIOS BASTIDAS, ALEXIS ENRRIQUE       0012551358003291  
001020112840000055259000005447490770GUANIPA MEDINA, ELVIS LEONEL            0012699272003291  
001020112840000055262000004068430770LOAIZA TORIN, ELVIS ROMUALDO            0012699945003291  
001020311210000029667000002470890770GARAY ANTILLANO, JOSE YOLANDO           0012727328003291  
001020151990000091666000004068430770IZARRA, ARGENIS LEONEL                  0012776288003291  
001020336850000043766000004068430770BAEZ TRUJILLO, JUAN JOSE                0012841816003291  
001020429150000105455000004068430770CONTRERAS ROMERO, CARMEN MARIELSI       0012903890003291  
001020369400000077884000004068430770VELAZQUEZ PAREDES, OMAIRA ALEJANDRA     0012907590003291  
001020346550000120249000004068430770COLMENAREZ ARANGUREN, YENNY JOSEFINA    0012965967003291  
001020328790000042893000004110800770MUÑOZ PEDREAÑEZ, EDGAR ATILIO           0013010685003291  
001020438120000084754000004068430770ESPINOZA, CAROL JANETT                  0013074360003291  
001020151920000091695000004068430770LOAIZA TIBAQUIRA, BERNARDO              0013098199003291  
001020429170000105468000004110800770RAMIREZ RONDON, ROSA ELENA              0013121334003291  
001020117900000064033000004110800770VIVAS RIOS, LORENA DEL CARMEN           0013201523003291  
001020470430000125972000004068430770GARCIA LAREZ, ROSAURO ANTONIO           0013263705003291  
001020116100000036320000002428520770CARMONA ZAPATA, JOSE EDUARDO            0013276374003291  
001020151950000091721000004068430770RAMIREZ, WILLIAM JAVIER                 0013283032003291  
001020151970000091734000004068430770BARILLAS CARRERO, FREDDY RAMON          0013447186003291  
001020339280000083483000004068430770MOLINA, ELENA CAROLINA                  0013496580003291  
001020219120000131144000004068430770CASANOVA PABON, CARMEN ROSA             0013505760003291  
001020151990000091747000004195540770PUENTES UZCATEGUI, NANCY COROMOTO       0013558852003291  
001020116190000036391000002428520770MATUTE TORREALBA, JOSE DANIEL           0013573969003291  
001020387250000071660000004068430770ESCOBAR, JUAN FRANCISCO                 0013789981003291  
001020466650000086480000004110800770BENAVIDES CORTEZ, FELIX RAFAEL          0013805185003291  
001020193480000051499000004026060770MACHADO SILVA, STANLI JOSE              0013820122003291  
001020457710000091103000003813740770MEDINA TORRES, FRANCYS ISANA            0013964535003291  
001020453460000143200000004026060770VARGAS HENRIQUEZ, ARGENIS ALEJANDRO     0014047643003291  
001020116110000036252000002470890770MEDRANO PEREZ, GREGORIO JACOBO          0014060616003291  
001020470480000121196000004068430770PADRINO LEDEZMA, ASDRUBAL JOSE          0014088268003291  
001020219160000131173000004026060770RAMIREZ PADILLA, ANA FRANCISCA          0014217260003291  
001020151920000091776000004068430770TORRES, OSCAR ALEJANDRO                 0014255403003291  
001020369440000077923000004110800770SERRANO LINARES, FRANKLIN JOSE          0014273923003291  
001020112800000057752000004068430770FABBIANI GARCES, MARION                 0014292666003291  
001020680400000012946000004068430770CELIS TOVAR, JULIO SALVADOR             0014345410003291  
001020560320000072355000003941320770USECHE, ERWIN FERNANDO                  0014348995003291  
001020219180000131186000004168070770CHACON DURAN, NORAIMA                   0014368993003291  
001020219100000131199000004068430770SANCHEZ DE PRATO, SCARLET SVETLANA      0014378872003291  
001020311210000029913000002428520770TARAZONA MEDINA, RAFAEL ANTONIO         0014382702003291  
001020364370000078825000003941320770MORENO DURAN, ZOILA KATTYUSKA           0014413960003291  
001020112880000055288000004026060770GONZALEZ DEL MORAL, MEYLU GISSEL        0014442226003291  
001020369460000077936000004068430770DELGADO VASQUEZ, LILIANA CAROLINA       0014460329003291  
001020435660000089351000004068430770CARRILLO MEJIAS, MIGUEL ALBERTO         0014519636003291  
001020369480000077949000004068430770PERDOMO BRACAMONTE, MORAIMA COROMOTO    0014556095003291  
001020438110000084819000004068430770BRITO CARREÑO, MIGDIS BELIN             0014596953003291  
001020151900000091190000004068430770SARMIENTO HIDALGO, JORGE ARMANDO        0014600989003291  
001020311220000030106000003983690770CORRO HERNANDEZ, LUIS DAVID             0014608487003291  
001020364340000072193000003941320770YUNIS URBINA, NINOSKA YAURIMA DEL VALLE 0014613832003291  
001020435600000089377000004068430770POLANCO HOYO, MIGUELANGEL JOSE          0014662451003291  
001020311210000029748000002428520770LOZADA PINEDA, JESUS NOEL               0014709160003291  
001020369400000077965000004068430770DELFIN RAMIREZ, ABEL BAUTISTA           0014739217003291  
001020429110000105507000002513260770BRIZUELA PAICULAVA, JANETH ADELAIDA     0014779021003291  
001020151910000091200000004026060770MORENO, MARLLY KATHELLIN                0014806169003291  
001020369490000077554000004068430770DELGADO ALDANA, RAQUEL ANDREINA         0014835040003291  
001020629440000006897000004026060770HERNANDEZ COTUA, ONEXY JULIAN           0014904200003291  
001020470490000121206000004210430770MARQUEZ ARZOLAY, ISAMU DEL MAR          0014905748003291  
001020369480000087719000003941320770MARTINEZ GAVIDIA, KENNY BENJAMIN        0014928609003291  
001020438120000084835000003193410770RODRIGUEZ CARRILLO, YDAISY JOSEFINA     0014994108003291  
001020151940000091226000004068430770PEÑA ARAQUE, RAMON ALEXIS               0015174168003291  
001020388100000096865000004026060770VELARDE PEROZO, OMAR ALFREDO            0015226508003291  
001020219110000130996000004068430770DELGADO MORA, JUAN ALBERTO              0015232978003291  
001020151910000091284000004068430770PRATO MARQUEZ, MANUEL ALONSO            0015235815003291  
001020311200000029175000002470890770AGUIAR PEREIRA, YAIRYS                  0015258407003291  
001020112890000055301000005362750770CHIRINOS CARRASCO, LUZMILA JOSEFA       0015310273003291  
001020438140000084848000004068430770ESPINOZA FIGUERA, JOHAN ALBERTO         0015318275003291  
001020461580000035282000004068430770MARTINEZ MIERE, DESIREE DEL VALLE       0015373830003291  
001020311270000029719000002428520770RODRIGUEZ HERNANDEZ, RICHARD JOSE       0015382933003291  
001020369410000077570000004068430770OCANTO, CARMEN DILIA                    0015407002003291  
001020597210000025807000003941320770CARABALLO CARABALLO, LEONEL JESUS       0015429023003291  
001020219150000131005000004068430770MANRIQUE ANGARITA, ADRIAN JOSE          0015437727003291  
001020219170000131018000004068430770DUARTE ALVAREZ, DAVID ALBERTO           0015438531003291  
001020311200000030973000004195540770OLIVEROS CAMPOS, LEOMAR  EFRAIN         0015454116003291  
001020435610000089393000004068430770BASTIDAS LINARES, OMAR JOSE             0015463519003291  
001020635950000028846000004026060770UMBALDIN MORALES, JESUS EMILIO          0015469213003291  
001020219100000130909000004068430770VANEGAS JAIMES, DAIS NAYIBE             0015502655003291  
001020634150000040743000003983690770LOPEZ PAEZ, ANNY CRISTINA               0015520416003291  
001020112810000055314000004068430770GARCIA MALAVER, FREDDY ALEXANDER        0015529643003291  
001020346510000120304000004068430770VENEGAS LUCENA, ANDHY JOSE              0015588078003291  
001020151960000094870000004026060770FRANCO BRICEÑO, JENNIFER                0015621393003291  
001020414330000079413000003941320770URAY ESCUDERO, MARCOS JOSE              0015637350003291  
001020161620000047005000004026060770HERNANDEZ DIAZ, CESAR EDUARDO           0015647238003291  
001020114420000185695000004068430770MERCADO QUINTERO, LUILIMAR LISBEHT      0015722054003291  
001020114430000185705000004026060770CORONEL RODRIGUEZ, JOSE REINALDO        0015722440003291  
001020219100000130912000004068430770GUERRERO GUERRERO, MARIA ELENA          0015760253003291  
001020470410000121219000004068430770MILLAN MARTINEZ, ROSANNYS CAROLINA      0015790478003291  
001020369400000078016000004068430770BARRIOS, KARINA JOSEFINA                0015824197003291  
001020219110000130925000004068430770GONZALEZ RODRIGUEZ, MIRLEY CAROLINA     0015862467003291  
001020457760000091145000004068430770COLMAN PEREZ, MARYURY YSELA             0015951779003291  
001020311250103121648000002470890770REYES SUAREZ, JORGE LUIS                0015994002003291  
001020346530000120320000004068430770BETANCOURT MONSALVE, ALEXANDER JOSE     0016073555003291  
001020116100000036317000002428520770PEREZ TORREALBA, CARLOS ENRIQUE         0016098370003291  
001020346550000120333000004068430770LABRADOR ARIAS, MARIELA CORINA          0016210633003291  
001020741080000010579000003941320770LOPEZ ARIAS, NILTHON JHON               0016242431003291  
001020387210000071699000004068430770HURTADO TARACHE, LISETT MAYERLIN        0016254646003291  
001020601410000037316000003941320770ESPINOZA GONZALEZ, JULIO CESAR          0016257047003291  
001020466630000086545000004068430770BELLO PULIDO, ANGEL ALEJANDRO           0016270600003291  
001020311240000029133000004026060770ROJAS ALVAREZ, ANTHONY JAVIER           0016319178003291  
001020339210000083506000004068430770ESPINOZA GARCIA, LISOLEC YASMELIS       0016349587003291  
001020369410000078032000004810370770BRICEÑO DELGADO, PATRICIA ALEJANDRA     0016376545003291  
001020461510000035305000004068430770ESPINOZA  BENITEZ, JONATHA  JESUS       0016382318003291  
001020453400000191003000003941320770ALFONZO PEREZ, JOSE GABRIEL             0016389583003291  
001020219130000130938000004068430770BARRERA MARTINEZ, JOHANA LISBETH        0016422370003291  
001020311230000030274000002428520770HERNANDEZ SUAREZ, NORKY NATHALY         0016454718003291  
001020560310000030009000003983690770OVALLES VELANDRIA, BELKIS MARITZA       0016477034003291  
001020466650000086561000004068430770YBAÑEZ MARTINEZ, GERALDO GABRIEL        0016528973003291  
001020466670000086574000004068430770FALCON CARRIZALES, EULER HUNFREDO       0016529724003291  
001020116150000034241000004083330770LORCAS OLMEDO, PEDRO RICARDO            0016591097003291  
001020219130000130941000004068430770GARNICA RODRIGUEZ, EDIXON RAMON         0016611284003291  
001020470410000121222000002598000770PULVETT ORDAZ, HARRY RAFAEL             0016700005003291  
001020606540000020161000004026060770ZAMBRANO YEMES, ROXELIN JOSEFINA        0016700697003291  
001020629470000006839000002470890770PEREZ ROJAS, LUIS ANGEL                 0016700854003291  
001020116100000035541000003983690770MENDOZA GUERRA, ALVARO LUIS             0016733061003291  
001020151960000091323000004026060770APONCIO VERA, YOS LARRY                 0016742819003291  
001020219150000130954000004068430770RANGEL COLMENARES, CARMEN DEISY         0016744440003291  
001020858160000040332000003941320770PEDROZA ROJAS, CARMEN ADRIANA           0016774436003291  
001020467410000046611000003941320770ARANGUREN RAMOS, YOBELINDA              0016812683003291  
001020453410000037552000003983690770GUTIERREZ GUTIERREZ, MARCOS ANTONIO     0016842219003291  
001020435660000089429000004026060770ANGEL BERRIOS, MAIRA ALEJANDRA          0016978830003291  
001020435640000089500000004026060770FANDIÑO PEREZ, SAULIO LA CRUZ           0016979047003291  
001020438140000084851000004026060770LONGART GARCIA, SANDY JAVIER            0016995095003291  
001020151900000091349000004026060770URIBE, MAYRA ROSANGELA                  0017028876003291  
001020369450000078061000004068430770CORNIELES, JAVIER DEL CARMEN            0017038985003291  
001020346520000120388000004026060770CHINCHILLA BARAZARTE, MARIA TERESA      0017049626003291  
001020311230000033420000002428520770POLO POLO, VICTOR HUGO                  0017072572003291  
001020311230000029612000004026060770BRITO VELASQUEZ, TONY EDUARDO           0017072656003291  
001020438160000084864000004068430770OBANDO SALAZAR, WUILMER DEL VALLE       0017217717003291  
001020311210000029188000002470890770RUIZ GONZALEZ, CESAR RAFAEL             0017258269003291  
001020369470000078074000004026060770GUDIÑO HIDALGO, ROMULO ANTONIO          0017304134003291  
001020346520000120391000004026060770MEJIAS BETANCOURT, NELSON JOSE          0017304261003291  
001020369490000078087000004068430770ASUAJE, NESTOR JOSE                     0017304449003291  
001020346530000120401000004110800770GUTIERREZ GUTIERREZ, FANNY MAGALIS      0017394337003291  
001020640550000053125000005000550770LOZADA SUAREZ, LUIS EDUARDO             0017407261003291  
001020461540000035334000004068430770RODRIGUEZ GARCIA, RONY ALEXANDER        0017452467003291  
001020438180000084880000004026060770PLAZA RODRIGUEZ, MIGUEL ANGEL           0017487358003291  
001020606510000035334000003941320770PLAZA HERNANDEZ, RAMIRO ADOLFO          0017546367003291  
001020151990000099914000004026060770ROJAS MENDOZA, ANGEL CUSTODIO           0017596541003291  
001020339240000083535000004026060770NOROÑO NOROÑO, ANA GREGORIA             0017630149003291  
001020533610000023278000004068430770LEON RODRIGUEZ, YENIREE DEL VALLE       0017648900003291  
001020120900000052854000004026060770SANCHEZ CHACON, SANDRA DIGMAR           0017678668003291  
001020560320000072436000004153170770GUERRERO MORENO, KEYLA DALID            0017690916003291  
001020311270000034225000002386150770LOZADA VILLEGAS, CARMEN ALIDA           0017843190003291  
001020311280000036676000002386150770CAMPOS OJEDA, LEONARDO ANDRES           0017990252003291  
001020466610000087706000004026060770MERCADO, JOSE LUIS                      0018015237003291  
001020461540000035169000004068430770PEREZ DIAZ, MILAGROS DEL VALLE          0018129676003291  
001020336820000070959000004026060770JIMENEZ FRASQUILLO, JOSE ANGEL          0018220262003291  
001020116150000034403000002470890770LARA PEREZ, AMILKAR ENRIQUE             0018230531003291  
001020116110000036168000002513260770GUARATE PEREZ, JOSE LUIS                0018230807003291  
001020346520000120553000004153170770GUDIÑO VELASQUEZ, JENNY ALEXANDER       0018251924003291  
001020466660000089144000004026060770JUAREZ RAMOS, JETSY MARIA               0018326949003291  
001020466650000087256000004026060770PADILLA MENDOZA, JOSE FRANCISCO         0018327332003291  
001020339200000107330000003983690770ORTIZ GONZALEZ, YBRAHIM REIMUNDO        0018481827003291  
001020466600000086600000004026060770AGUILAR POLANCO, MIGUEL ALBERTO         0018544679003291  
001020387210000071709000004068430770MARAPACUTO MARAIMA, ALEJANDRO ANTONIO   0018596208003291  
001020470440000121251000004068430770MATA SUNIAGA, EDUARDO JOSE              0018658425003291  
001020339260000083548000004068430770MOSQUERA TORREALBA, ALEJANDRA MAGDALENA 0018888869003291  
001020741010000008918000003941320770MEDINA SOLORZANO, ELIZABETH ANDREINA    0018892342003291  
001020111050000062417000003941320770GUALDRON LINARES, DANNALI GRACIELA      0018929942003291  
001020113650000047746000003983690770HERNANDEZ ACOSTA, ABRAHAM ALBERTO       0019067241003291  
001020441110000095837000004026060770RAMIREZ RONDON, JHOAN ANTONIO           0019071168003291  
001020334150000201922000003941320770PEREZ CAMACHO, YORMAN JOSE              0019071499003291  
001020438120000061913000003983690770GUERRA RODRIGUEZ, NELSON RAMON          0019190577003291  
001020457790000154833000003941320770BETANCOURT GUARUYA, DARWIN CRISANTO     0019352438003291  
001020698720000005209000003941320770RUIZ SILVA, MAYRANGEL NAIRETH           0019406841003291  
001020165950000082387000003941320770PEÑA ARENA, CESAR YOANDRY               0019636458003291  
001020507730100016839000003983690770FARIAS FARIAS, RAMON JOSE               0019700288003291  
001020461530000043054000003941320770MIERES GARCIA, BARBARA DEL CARMEN       0019787495003291  
001020358920000240802000003983690770LEON MACHADO, DORIANY GABRIELA          0019792371003291  
001020311280000029971000002386150770ALVARADO ALVARADO, JOSE ANTONIO         0019856936003291  
001020597260000025933000003941320770RODRIGUEZ BRAZON, FRANKLIS JOSE         0020124700003291  
001020466600000089089000004026060770REBOLLEDO JUAREZ, JESUS JOSE            0020231048003291  
001020339210000134073000003941320770SALAS RODRIGUEZ, ISABEL DEL CARMEN      0020296536003291  
001020726670000027850000005591740770RODRIGUEZ RODRIGUEZ, ADRIANA CAROLINA   0020297136003291  
001020116150000036443000002470890770AGRAZ, NATO FRANCISCO                   0021426867003291  
001020311220000029683000002470890770PINTO GOMEZ, YORMAN ANTONIO             0022311825003291  
001020112820000055327000004110800770VELEZ GOMEZ, HUMBERTO                   0022328639003291  
001020151960000091404000004068430770REYES REYES, OLGA LUCIA                 0022928493003291  
001020219170000131021000004068430770MANTILLA ORTEGA, HEBERTH ALEJANDRO      0028642669003291  
001020151900000091271000004026060770ROSALES GOMEZ, RAUL ASTERIO             0084395445003291  
001020741090000010511000003941320770GARCIA ALVAREZ, LAZARO                  0084499516003291  
