HFundación de Capacitación e Innovación p010205522200000649070110/09/13000003642683703291 
101020132200100025967000004026061770GONZALEZ GONZALEZ, LUIS ALFONSO         0009146784003291  
101020422400100020518000004322651770FIGUEROA PIÑA, DENNY JAVIER             0012489749003291  
101020261290100013001000004026061770PEREZ, MARBELLA JACQUELINE              0012866307003291  
101020930710100001043000003983691770FERNANDEZ DE FLORES, ZULEYMA MARIA      0013904930003291  
101020501810109302083000004026061770VEGA MOSQUERA, DOMENICA FERNANDA        0014323531003291  
101020241890100015521000003941321770ROJAS MOLINA, EMILY DEL CARMEN          0014874479003291  
101020161670100049774000003983691770RIOS PIÑANGO, DERMAN JOSE               0017928834003291  
101020132200100031803000003941321770RAMIREZ ZAMBRANO, LUIS CARLOS           0021065894003291  
001020222140000099053000004110800770MORENO, AVILIO RAMON                    0002072648003291  
001020222180000099082000007096000770BUSTAMANTE BALDUZ, EDGAR                0003009576003291  
001020222160000099150000004110800770ALDANA TORRES, REGULO DE JESUS          0004061255003291  
001020222100000099176000004110800770ASCANIO DE GONZALEZ, MATILDE MARTINA    0004246591003291  
001020222150000098928000006276740770GONZALEZ NAVARRO, NORIS VIRGINIA        0004621883003291  
001020286890000121086000004026060770MURGA DIAZ, LUIS ARMANDO                0005114901003291  
001020501860000492074000002713580770ROJAS, CARLOS RAFAEL                    0005150768003291  
001020222160000098614000004110800770BLANCO, MAGALY JOSEFINA                 0005494741003291  
001020369410000077729000005405120770MORENO BRICEÑO, LUIS ALBERTO            0005781773003291  
001020222170000098698000004110800770VASQUEZ VASQUEZ, EDICSON                0005785947003291  
001020222100000098724000004110800770QUINTANA DE PITA, ALICIA BALZAMIRA      0005974677003291  
001020222110000098740000006896710770BRACAMONTE RAMIREZ, EGLIN AZUSENA       0006048654003291  
001020222130000098834000004026060770MATA HERNANDEZ, JUAN ROBERT             0006259432003291  
001020222190000098876000004110800770MEDINA SEQUERA, SARA DEL CARMEN         0006428572003291  
001020103990000068929000004195540770SANCHEZ COLMENARES, HERNAN RUFINO       0006550493003291  
001020501870000497024000004026060770PEREZ GOMEZ, LUIS ALFREDO               0006552620003291  
001020222110000098410000004110800770LOPEZ AGUILERA, ROY ALEXANDER           0006906027003291  
001020224840000179038000004280280770SUAREZ ARRECHEDERA, TOMAS AUBDON        0006963569003291  
001020734700000006059000003983690770MONTILBA, JOSE ALBERTO                  0007661875003291  
001020418650105173987000003983690770HERNANDEZ, ALEXIS RAMON                 0008305425003291  
001020364380000067072000005405120770NATERA RODRIGUEZ, FRANCISCO ANTONIO     0008674838003291  
001020352040000078582000003983690770JIMENEZ DE GONZALEZ, MARIA CARMEN       0008675480003291  
001020219190000131115000005871180770CANTOR ROA, LUIS HUMBERTO               0009125051003291  
001020346510000120540000006265150770JIMENEZ CORREA, LUIS SIMON              0009400010003291  
001020222110000098012000002798320770CHIRINOS PIÑA, LEONARDO JESUS           0009732110003291  
001020872640000014122000002470890770ALVAREZ, RUBEN DARIO                    0010181257003291  
001020435620000089238000005508020770BARRIOS MENDOZA, JULIO CESAR            0010559267003291  
001020501850000634447000003519660770ASCANIO RANGEL, ALBERTO CESAR           0010821441003291  
001020222110000097628000003151040770JAYARON YANEZ, RANIHERY JOSE            0011166209003291  
001020222140000097660000005362750770PARAIZO URIBE, INGRID CAROLINA          0011408678003291  
001020222180000108685000002428520770BRUZCO CEDEÑO, CAROLINA DEL VALLE       0011438802003291  
001020867000000064389000002628840770SANCHEZ SANCHEZ, JOSE RAMON             0011789802003291  
001020222160000097754000005694210770RODRIGUEZ VIVAS, VINCENT ALEXANDER      0011992068003291  
001020222110000097877000004110800770ALVAREZ CEDEÑO, LINET MAILYN            0012389530003291  
001020222110000097880000004768000770TORO JAIMES, CARLOS ALFONSO             0012404370003291  
001020222150000097343000003604400770CARTAYA MIRELES, YHOANSI FRANCISCA      0012686626003291  
001020453430000143174000006022530770TOCUYO LOPEZ, ALEXANDER JOSE            0013054886003291  
001020222130000097408000003222010770VASQUEZ RIVAS, JESUS ANTONIO            0013070678003291  
001020127610000054975000005000550770GIMENO CHACON, CATIUSCA                 0013217141003291  
001020222140000097495000004237910770MOYA MAITAN, VIRGILIO MANUEL            0013319138003291  
001020241880000072216000002470890770ESTRADA VASQUEZ, PEDRO ANTONIO          0013437473003291  
001020501830000494904000003108670770RIVAS CEDEÑO, FRANCIS BELEN             0013476802003291  
001020556500100000839000003983690770TORRES MEZA, ORLYCE CAROLINA            0013866165003291  
001020930700000005461000003983690770OROPEZA HERNANDEZ, FRANKLIN ALEXANDER   0013903953003291  
001020148910000040617000002428520770MENDEZ CALDERON, YORBI JESUS            0014034322003291  
001020501870000458157000003983690770BRACAMONTE HERNANDEZ, PAULA EDISBEL     0014584024003291  
001020690150000043452000002386150770SANTANA CEDEÑO, DANIEL VICENTE          0014587564003291  
001020117930000072355000003983690770TOLEDO VALOA, MAGDALYS NORELYS          0014637524003291  
001020872660000014300000003941320770ESCOBAR CARRASQUEL, MOISES              0014720462003291  
001020211690000136026000004768000770JIMENEZ RIVERO, ROSA VIRGINIA           0014978996003291  
001020222140000099778000004110800770MANZANILLA CANELON, YENNY               0015048252003291  
001020222140000108737000003983690770HERNANDEZ ROMERO, FELIX ALEXIS          0015091774003291  
001020161690000061036000003941320770MARTINEZ, MERLY YUBISAY                 0015161351003291  
001020501860000557540000003983690770VILORIA RIVAS, CHERRY JOSE              0015584278003291  
001020222160000099956000004026060770TORREALBA GUERRERO, VERONICA DESIREE    0015700040003291  
001020501890000618777000004040960770ALVARADO DIAZ, GRISELDY JACQUELINE      0015711584003291  
001020872610000014258000003941320770HERNANDEZ ARGUINZONES, ORIELIS MARGARITA0015712805003291  
001020222150000099707000004068430770SUBERO CARRIZO, JORSIRA ALEXANDRA       0016218792003291  
001020445330000068738000004026060770MARTIN ESPINOZA, GUSTAVO JOSE           0016249371003291  
001020222180000099325000004068430770MADRIZ, GRACE VIOLETA                   0016413672003291  
001020501840000407218000003983690770ALTRIAGA FLORES, SANTIAGO ISMAEL        0016556411003291  
001020501810000589165000002428520770ESCALANTE PARRA, JESUS AGAPITO          0016610318003291  
001020135740000066206000003983690770ALVAREZ ACEVEDO, VERONICA YULIANA       0016815030003291  
001020222130000099448000004026060770RUIZ MANTILLA, WILFREDO JOSE            0017016034003291  
001020429170000105552000004068430770CASTILLO PINZON, KATIUSKA ISIDORA       0017046529003291  
001020501820000494894000004026060770PALOMO RODRIGUEZ, HENRY JOSE            0017557793003291  
001020501840000589194000002428520770ALVEAR CARDENAS, DIEGO EFRAIN           0017610046003291  
001020690140000054234000002386150770DIAZ RAMIREZ, GABRIEL ALBERTO           0017719797003291  
001020682120000010045000004026060770MONTILLA LEON, ORLANDO JOSE             0017828536003291  
001020189670000081016000003983690770ABREU AGUILAR, MARIA ANAILID            0017928467003291  
001020501850000484260000003983690770HURTADO, BLADIS ALBERTO                 0017958848003291  
001020525560000048567000003688070770DE ABREU CORONADO, AMCORY               0018092507003291  
001020222120000099202000004026060770GODOY BERRIOS, VALERY ALEXANDRA         0018129501003291  
001020284140000096386000004026060770DIAZ, ADRIAN REINALDO                   0018131121003291  
001020497650000075077000003983690770MATA LANZA, BARBARA CAROLINA            0018388997003291  
001020131450000040620000004040960770BRICEÑO DUARTE, DORIS VANESSA           0018588402003291  
001020123370000048185000004026060770MUÑOZ DIAZ, YESSICA YUSMARY             0018604506003291  
001020501820000614645000004040960770RODRIGUEZ RONDON, EVIMAR YSABEL         0018749533003291  
001020102110000038629000002470890770CABELLO VELASQUEZ, LUIS VIDAL           0019710257003291  
001020221310000316163000003983690770GARCIA HERNANDEZ, LUIGI JESUS           0019851802003291  
001020501880000571128000002428520770CORREA APONTE, MOISES RAFAEL            0020096506003291  
001020222110000107686000002470890770RONDON BLANQUEZ, LUIS DARIO             0021149035003291  
001020102150000038580000002428520770RONDON MOLINA, PEDRO FRANCISCO          0023686658003291  
