HMINISTERIO DEL PODER POPULAR PARA LAS CO010205522800000499480105/06/12000000157652603291 
112345678901234567890000001384001770OREPEZA, YORMAN                         0017299160003291  
101234567893456789065000008181631770BOMPART, CRUZ                           0001509736003291  
012345678901234567899000006199630770SANCHEZ, MARIA EUGENIA                  0016662016003291  
