HFundación de Capacitación e Innovación p010205522200000649070115/11/13000013360524003291 
101020350300100074226000001608721770MAIZO MORALES, ANDRES EDUVIGES          0000619466003291  
101020356200100010810000001424591770GUTIERREZ, ANTONIA                      0003162875003291  
101020221330100327465000002769161770CARABALLO, ALFREDO RAFAEL               0006905981003291  
101020364370100057101000001591001770MANZANAREZ FARIAS, BELKIS PASTORA       0007051172003291  
101020412760100131943000001896381770HERNANDEZ VARGAS, MANUELA DEL COROMOTO  0008269539003291  
101020350390100076194000001479341770ALVAREZ BRICEÑO, JOSE ANTONIO           0008685324003291  
101020228180100012090000003256971770RIERA DE RONDON, ANA EMILIA             0009260294003291  
101020350350000079280000001745581770RAMIREZ NAVARRO, HERMES ALBERTO         0009658536003291  
101020350300100074677000001477821770HERNANDEZ GUTIERREZ, ISIDRO             0009655728003291  
101020456980100082199000002557011770PEÑA PEREZ, JOSE ODULIO                 0010072181003291  
101020329510100070362000002557601770BRACHO GARCIA, ALVIS JOSEFINA           0010687435003291  
101020364370100057096000001613221770CASTELLANO MANZANAREZ, MILEIDI BENEDICTA0010733011003291  
101020223020100019812000001872101770AULAR GUZMAN, LARRY JOSE                0010791893003291  
101020350360100074116000001449921770GIMENEZ RAMIREZ, EUSTAQUIO DE JESUS     0011584191003291  
101020350370100074107000001548321770ARTEAGA, SERGIO ANTONIO                 0012002616003291  
101020491740102490834000001701541770MAYORCA BRAVO, ALFREDO ANTONIO          0012259821003291  
101020350360100074178000001591001770MONTILLA MONTILLA, JESUS ENRIQUE        0012482675003291  
101020167510100029818000001407321770PERDOMO, MARIA DOMINGA                  0012499865003291  
101020346500106621814000002192171770COLMENAREZ CAMPOS, LUIS MANUEL          0012691949003291  
101020455190103116570000003681881770FOSSI FLORES, FERNANDO JOSE             0012783242003291  
101020350340100074117000001377151770CASTILLO VASQUEZ, CARLOS MIGUEL         0013044641003291  
101020364310100057099000001613221770ALVAREZ SALAZAR, EDILIA ROSA            0013183109003291  
101020107190100041662000001479341770MEDINA CHACON, IRIS DEL VALLE           0013535819003291  
101020245130000169572000002338261770MALAVE MEDINA, CARMEN JOHANNA           0013686236003291  
101020103900103765534000002017511770VIVAS, MARIA TERESA                     0014154296003291  
101020213210107705742000001846861770ESCALONA MORA, ROGER ALEJANDRO          0014157838003291  
101020130620100040953000002234441770BELISARIO FLORES, OLIVER AWELL          0014453007003291  
101020364330100057098000001613221770ALVAREZ SALAZAR, MILAGROS DEL VALLE     0014899540003291  
101020311200103118611000002428961770RIERA MOLINA, FRANCIS AVELIS            0014998958003291  
101020443740100009590000002293601770PEÑA BORREGO, SOELY KAROLY              0015435867003291  
101020364350100057097000001591001770COLINA SUAREZ, YRENE DEL CARMEN         0016159279003291  
101020456960100065470000002398131770MUÑOZ OROPORTE, ROGERT ALEXANDER        0016810962003291  
101020335020102274644000002079551770ROSALES GONZALEZ, YOLMAR JOSE           0016875488003291  
101020443710100011706000002557601770ATENCIO PAZ, DANIELA JOSEFINA           0016885359003291  
101020645610100001925000004220141770BRITO GONZALEZ, JUNIOR JESUS            0017318286003291  
101020497600104983685000003705291770OLIVO RAMIREZ, YOSIBEL OSMAYUNI         0017790539003291  
101020501810109342087000001570541770CHIRINOS MACHADO, MAYENGLI ISGLEYS      0018030095003291  
101020350330100074305000001591001770OROPEZA CARRILLO, JHONCIS ADOLFO        0018165524003291  
101020497600104987820000002308181770CAMPOS SANCHEZ, JOHNNATHAN DEL VALLE    0018415013003291  
101020322820100096635000001462971770BRICEÑO, VICTOR EDUARDO                 0019967166003291  
101020682150100000652000001462971770MENDEZ LOVERA, ZUBRAILIZ NINIBET        0020756940003291  
101020221350000399669000001462971770FRANCO RIVERO, KATHERINE ANGELICA       0020914977003291  
001020350390100074056000001548320770ASUAJE DE RAMOS, YOLANDA JOSEFINA       0006184423003291  
001020222120000099037000002202780770IZAGUIRRE RIVAS, ROGER UVALDO           0000646726003291  
001020350350000097505000001765070770GUERRERO ANZOLA, JORGE ALEXIS           0024247321003291  
001020466680000086419000001647540770GUERRERO PARRA, ARLENIS NINOSKA         0002477844003291  
001020336820000073859000002824500770ESPINOZA, LUIS ENRIQUE                  0002522610003291  
001020219190000131034000005371060770MEDINA MEDINA, GONZALO                  0002552753003291  
001020222160000099066000003451860770REINA, MARIA AUXILIADORA                0002766955003291  
001020222180000099079000002867520770ARAY, MIGUEL                            0002803079003291  
001020867010000025137000001505640770ROSENDO, PEDRO ROSARIO                  0003162753003291  
001020222100000099095000002308240770GARCIA FARFAN, LUISA MORAIMA            0003186063003291  
001020114410000185608000004202790770VARELA HERNANDEZ, CARLOS ALFREDO        0003209325003291  
001020222110000099105000002879650770MARTINEZ VELASCO, CARLOS EDUARDO        0003230182003291  
001020429110000105345000005337880770SANTAELLA GONZALEZ, ARQUIMEDES RAMON    0003853687003291  
001020112820000055246000002212880770TORREALBA MARCHAN, GLADIS FLORINDA      0003859570003291  
001020346550000120090000005188700770CEDEÑO GOMEZ, JOSE COROMOTO             0003868294003291  
001020222160000099147000003106080770DIAZ SANTA MARIA, ZAIDA ELENA           0003970452003291  
001020125000000064156000002169290770FLEITAS DE LA CRUZ, JAIMES              0004055980003291  
001020222180000099163000002734510770RAMOS QUINTERO, ANDRES                  0004246004003291  
001020222110000099189000005194000770BRICEÑO BRICEÑO, RUFINO SEGUNDO         0004322117003291  
001020350380100074213000001467720770TOVAR PIÑERO, DIMAS                     0004398399003291  
001020222110000098902000001890230770GALINDO VASQUEZ, MIGUEL EDGARDO         0004585024003291  
001020251510000060079000001959200770MALDONADO CARRERO, MANUEL EDECIO        0004587808003291  
001020222130000098915000001633690770VALENZUELA, JOSE WENCESLAO              0004611612003291  
001020219110000131050000004431540770PADILLA GONZALEZ, YRAIZA                0004636047003291  
001020222170000098944000003138570770MERCADO ALTUVE, ARNOLDO ANTONIO         0004701944003291  
001020365100000096470000004508440770SANCHEZ QUERALES, FELIX DAVID           0004728238003291  
001020384850100069952000003061220770RANGEL, CARMEN JOSEFINA                 0004849058003291  
001020222110000098973000001787920770AGUIAR DELGADO, ARGENIS                 0004886653003291  
001020222120000098986000003071480770RODRIGUEZ LEZAMA, MARITZA JOSEFINA      0004939111003291  
001020105580000024316000004586920770HOSTOS BICHARA, ELVIRA MARGARITA        0005018466003291  
001020219120000131063000005184680770PLAZA PLATA, GERARDO RAINERIO           0005033447003291  
001020222140000098999000002076550770FONTALVO COMAS, MARTA TERESA            0005136032003291  
001020501850000507231000003684230770OVIEDO GONZALEZ, AURA ELENA             0005140956003291  
001020497620000125406000003801180770HERNANDEZ HERNANDEZ, HAYDEE COROMOTO    0005220172003291  
001020364310000067014000004983340770GUTIERREZ MARCHAN, EMILIO JOSE          0005293399003291  
001020222140000098601000001817300770MEDINA CHAVEZ, JESUS ORLANDO            0005314872003291  
001020286820000115186000001952700770CANELON SUAREZ, RICHARD ANTONIO         0005425906003291  
001020328700000042822000005012310770VILLASMIL SOTO, ENDY ARGENIS            0005562823003291  
001020151990000091828000002638770770CARRERO CASTILLO, NESTOR ALIRIO         0005563475003291  
001020222180000098630000004002790770CATINA HETZEL, SONIA                    0005585329003291  
001020222100000098643000001780680770IBARRA TORREALBA, JOSE GREGORIO         0005601535003291  
001020222120000102678000005482390770MARCANO VELAZQUEZ, GILDA ROSA           0005607856003291  
001020222110000098656000001952820770MARTINEZ, JORGE EDUARDO                 0005610842003291  
001020222130000098669000003231620770RUIZ DE PULIDO, BELKIS GIOCONDA         0005611415003291  
001020732110000010595000001761820770GARCIA MANZANILLA, FRANCISCO MELQUIADES 0005612639003291  
001020369440000077677000002600280770VELASQUEZ HERNANDEZ, RICARDO DE JESUS   0005634219003291  
001020222130000098672000004127450770CARRERO, WUILIAM ALFONSO                0005653785003291  
001020222150000098685000002347690770RIVAS RINCON, GRELY CAROL               0005683506003291  
001020346590000120443000004255590770PEREZ SANCHEZ, BETTSI COROMOTO          0005730038003291  
001020222180000098708000004765480770MARCANO SALAVERRIA, CARMEN MARGARITA    0005906481003291  
001020222180000098711000004342770770MARQUEZ MOLINA, JORGE RAUL              0005964562003291  
001020501830000482932000003476690770NAVARRO GAMEZ, DELEON                   0006000463003291  
001020246970000080321000002763530770SANCHEZ MACHADO, ELIA AVELINA           0006012888003291  
001020222110000098737000002117940770DASILVA, CARLOS ARMANDO                 0006013547003291  
001020222130000098753000003749280770QUEVEDO, LUIS EDUARDO                   0006097923003291  
001020222150000098766000003234700770CORRO ORTIZ, WILFREDO CRUZ              0006153299003291  
001020222170000098779000002885760770CRESPO BAEZ, MIRNA MARIA                0006181847003291  
001020497610000113023000004515040770SEQUERA PEREZ, INGRID JOSEFINA          0006193971003291  
001020222190000098795000002557990770ALVAREZ PASTRAN, ZAIDA ESTRELLA         0006211116003291  
001020222100000098805000001685550770CHIRINO JIMENEZ, ORLANDO JOSE           0006217454003291  
001020222110000098818000002420720770MORANTES DE ALTUVE, SANDRA TERESITA     0006219252003291  
001020222110000104058000001213720770OSUNA YEGUEZ, YSMAEL DE JESUS           0006247688003291  
001020233700000038179000002667910770SALAZAR LOPEZ, OMAR JOSE                0006362479003291  
001020222170000098863000001298470770ESCALONA, PEDRO JESUS                   0006376782003291  
001020222120000098339000004436120770ANTHONY CALANCHE, NORMA YASMIN          0006443085003291  
001020151940000091792000002600280770D`ENJOY ARAQUE, MARIA CAROLINA          0006563605003291  
001020222160000098368000001328020770MONTAÑA VALERA, JESUS ENRIQUE           0006728298003291  
001020275230000103936000006097080770FERNANDEZ RANGEL, WILLIAM JOSE          0006730853003291  
001020222160000098371000004940660770SALAZAR MATOS, GERMAN DAVID             0006809904003291  
001020461570000035114000002946850770CAMPOS MECIA, JOSE GREGORIO             0006813868003291  
001020336870000074191000004739510770ACERO VEGAS, SERGIO DARIO               0006855480003291  
001020222100000098397000003244880770REMIRO GALINDO, RHAIZA CAROLINA         0006870563003291  
001020222110000098407000003459880770ACENSO MARTINEZ, PABLO ARMANDO          0006900043003291  
001020222120000098423000001866130770ARROYO YEPEZ, JUAN BAUTISTA             0006908061003291  
001020231110000112370000004823790770BENITEZ ROSALES, MAGALY DEL VALLE       0006932578003291  
001020222160000098449000002284970770URBINA GUAMICHE, RODOLFO RAFAEL         0006967671003291  
001020112820000047034000005961820770DELGADO CUICAS, ALBA MARY               0007321932003291  
001020112890000055136000004772740770PRINCE, ASDRUBAL ANTONIO                0007352859003291  
001020346520000120469000004397240770COLMENAREZ GUTIERREZ, JOSE SANTOS       0007394733003291  
001020112840000055178000002297330770ROJAS GIMENEZ, VICTOR JOSE              0007452826003291  
001020346520000120472000004709570770PERAZA JIMENEZ, PAULA BELINDA           0007462132003291  
001020112860000055194000003644040770REYES DE SOTO, ESTHER MILAGROS          0007538230003291  
001020105560100037209000004088690770PEREZ FALCON, JUAN CRISOSTOMO           0007661457003291  
001020222160000098452000003655160770DE ESTEFANO FEMAYOR, ROSA JOSEFINA      0007682220003291  
001020429170000105387000004202790770HEREDIA MORENO, ROBERT GREGORIO         0007913425003291  
001020222180000098465000002629460770OCHOA LOPEZ, MIRIAM MARGARITA           0007922000003291  
001020222100000098481000001479180770VALERA, OLIVIA DEL CARMEN               0007929239003291  
001020105500000038425000003112630770BOLIVAR HERRERA, JOHAN HILDEMAR         0007948449003291  
001020222120000098504000003103600770PACHECO FRANCO, EVELYN COROMOTO         0007950212003291  
001020112800000055466000001396100770SILVA MENDOZA, JOSE DESIDERIO           0007981397003291  
001020668520000033051000005059280770MEDRANO FEBRES, ANA KARINA              0007997179003291  
001020369440000077758000003450070770RIVAS SANCHEZ, JUAN BAUTISTA            0008002110003291  
001020441110000095918000001345490770VALERO PEREZ, CARMEN ELENA              0008009143003291  
001020222140000098520000016420780770PEÑA VARELA, JESUS MANUEL               0008012462003291  
001020151960000091242000003363640770GIL DIAZ, MIRIAM JOSEFINA               0008019808003291  
001020151980000091255000003356820770RONDON, JORGE OCTAVIO                   0008023975003291  
001020151980000091420000005438230770PEÑA ROJAS, CARLOS JOSE                 0008045900003291  
001020435630000089490000002600280770GOMEZ CAMACHO, ELOY                     0008143379003291  
001020365180000091187000002842600770VILLARES RODRIGUEZ, SERAFIN SEGUNDO     0008513339003291  
001020117910000064127000004614110770VISBAL GARCIA, RICHAR ESTEBAN           0008580926003291  
001020387270000071592000003565850770HURTADO AREVALO, MARLON OSWALDO         0008588707003291  
001020466610000086448000003989860770FEBRES SANTAELLA, FRANKLIN LINO         0008627309003291  
001020336800000083687000001548320770ASCANIO CARPIO, JULIO RAFAEL            0008634918003291  
001020438140000084686000004784840770LARA, LUIS CATALINO                     0008644832003291  
001020222130000098588000002473160770ALEMAN, JOSE LUIS                       0008653559003291  
001020222180000097929000001410240770SANCHEZ, PEDRO PABLO                    0008666145003291  
001020350300000079882000001492000770APONTE TABARES, JOSE GREGORIO           0008689180003291  
001020350310000079170000001455080770MARTINEZ DE PERDOMO, MARISOL            0008815403003291  
001020364350100057102000001591000770PEREZ LAYA, CARMEN JUSTINA              0008848631003291  
001020470460000121183000002555650770HERNANDEZ VELASQUEZ, YAJAIRA DE LOS SANT0008953202003291  
001020868840000004323000005799800770DURAN GUEDEZ, LUISA ELVIRA              0009095340003291  
001020222110000097958000004424440770CRUZ GONZALEZ, DORIA TRINELI            0009174426003291  
001020222110000097961000001766330770SALAS VASQUEZ, KELVIS FELIPE            0009175053003291  
001020222190000102733000001591000770CENTENO ZERPA, GLORIA JOSEFINA          0009295146003291  
001020151910000091527000003809090770MANRIQUE CASTRO, JOSE GREGORIO          0009435460003291  
001020222130000097974000005111250770SALCEDO SANCHEZ, JOSE MARCELINO         0009468112003291  
001020151910000091530000003989860770SANTIAGO SANTIAGO, HERMES DE JESUS      0009473457003291  
001020222150000097987000001792320770MENDEZ SILVA, ALBERTO FRANCISCO         0009486068003291  
001020339210000083593000003583640770PEREZ PINTO, MARVELIS SOLEDAD           0009515713003291  
001020222150000097990000005071080770RAMIREZ GALINDEZ, ANIBAL JOSE           0009603707003291  
001020112880000055372000002477910770PEREZ VARGAS, ALEXIS RAFAEL             0009610700003291  
001020112800000055385000003710460770ARANGUREN FIGUEREDO, ANA PASTORA        0009614578003291  
001020328730000042848000004478180770MORALES, ALFONSO ENRIQUE                0009753355003291  
001020222130000098025000003830700770DURAN CARRILLO, DAVID SEGUNDO           0009760994003291  
001020346510000120142000003960930770PARGAS GIMENEZ, LISBETH COROMOTO        0010051908003291  
001020501870000558730000001626830770GONZALEZ GONZALEZ, JOSE ALDEMAR         0010113623003291  
001020461590000035130000002154010770GARCIA ANDRADE, JUAN CARLOS             0010173887003291  
001020336890000074447000002521320770MIERES SILVA, RAQUEL SILANIA            0010273077003291  
001020222190000098067000005036280770MUÑOZ, FREDDY ANTONIO                   0010311562003291  
001020350310000083454000001548320770ROMERO MENDEZ, JOSEFINA                 0010355363003291  
001020350300000080868000001548320770COLORADO BORGES, GABRIEL                0010360234003291  
001020167580000022185000001591000770PAEZ, EDUVIGIS                          0010361224003291  
001020222120000098096000002650760770QUINTERO GRACIA, RICARDO ENRIQUE        0010365629003291  
001020263970000119234000005755640770MARQUEZ PERDOMO, MARIA ALEJANDRA        0010379394003291  
001020222170000100515000002247960770BALLESTEROS PEÑALVER, GLENDA MARIA      0010417551003291  
001020151910000091598000003904500770BADELL SARCOS, MARTHA ELENA DE LA CH    0010446407003291  
001020222150000098119000001335000770SANOJA ESPINOZA, LISETH COROMOTO        0010480189003291  
001020222150000098122000017183910770HERNANDEZ OLIVARI, NORKA MARIA VALENTINA0010484071003291  
001020222170000098135000001839310770MALDONADO MARTINEZ, INGRID JOSEFINA     0010510551003291  
001020222190000098151000002481280770MACHADO MARRERO, NEY JOSE               0010530228003291  
001020102110000043290000003458980770BENITEZ ZAMBRANO, YNGRID MARISOL        0010543214003291  
001020127630000033378000002413100770FLAMEZ CABRITA, MARY CARMEN             0010549402003291  
001020222140000098193000002460030770HERNANDEZ BUSTO, EDWIN ENRIQUE          0010555488003291  
001020435610000089225000022696710770BERRIOS RODRIGUEZ, GENNY SUSANA         0010557637003291  
001020560320000027478000002941730770PAREDES PAREDES, JESUS ELIODORO         0010562697003291  
001020350310000080075000001548320770ZAMBRANO SANDOVAL, OLIEXIS COROMOTO     0010579961003291  
001020222120000098177000002932710770VERGEL PIAMONTES, RAFAEL ALBERTO        0010548398003291  
001020222150000098203000002387640770BELLO, CARLOS EDUARDO                   0010628082003291  
001020222170000098216000002846420770LO PINTO PINTO, WILMER JOSE             0010634900003291  
001020222190000098229000002411230770ROMAN TOMEDES, ALBERTO ALEXIS           0010662688003291  
001020339290000083412000002299280770ARROYO OLLARVES, NAIL DEL CARMEN        0010706447003291  
001020339210000083425000004150960770THEIS VENTURA, MARIA MAGDALENA          0010707397003291  
001020222140000098274000003052920770FRANCO BALAN, MARIELA INES              0010801910003291  
001020222190000098313000001198250770CLARO AZUAJE, JOSE MIGUEL               0010863972003291  
001020438170000084712000001748650770BONILLO ROMERO, MILAGROS ROMONA         0010883259003291  
001020151950000091637000003863650770RIVAS ARAUJO, ALEXA MARIBEL             0010912550003291  
001020112850000055107000001894010770PEREZ DE PERAZA, LINEYTH MARIA          0010961789003291  
001020222110000098326000003205240770FERNANDEZ MACHADO, SIBYL BETSABETH      0010975497003291  
001020222140000097576000002685650770REBOLLEDO PERAZA, OSCAR EDUARDO         0010976725003291  
001020350310000083373000001548320770REVETE COLMENARES, CARMEN OLIVIA        0011036511003291  
001020350350000079439000001391250770VASQUEZ SANCHEZ, FREDDY JOSE            0011050862003291  
001020336820000074560000004769680770SANTAELLA MILANO, FRANCISCO JAVIER      0011119581003291  
001020222170000097602000002602180770ROMERO, MARIA RAFAELA                   0011139327003291  
001020453410000143242000002391040770RIVAS MATA, FRANCISCO JAVIER            0011143597003291  
001020222190000097615000003874750770ESPINOZA ESPEJO, IVONNE MARGARITA       0011157746003291  
001020350370000079374000001403000770TIRADO, LUIS OSCAR                      0011184704003291  
001020501800000516497000002235780770GONZALEZ, JOSE MIGUEL                   0011200664003291  
001020222110000097631000002299020770VIRAHONDA SUNIAGA, WILLY JESUS          0011203347003291  
001020466630000086464000002306460770VENERO DE GONZALEZ, YULEDYS CORABEL     0011237991003291  
001020222120000097644000003605350770AGUILAR HERNANDEZ, CARLOS JAVIER        0011242766003291  
001020151950000091640000002327740770SANCHEZ BARRIOS, MARIA CAROLINA         0011411676003291  
001020222180000097686000001730700770ORTEGA GUERRERO, JHONY JESUS            0011553990003291  
001020461590000037329000011239340770BETANCOURT VILLASMIL, GEYSER GERONIMO   0011561304003291  
001020222100000097699000001721340770MUJICA VASQUEZ, EDWARD ALBERTO          0011603882003291  
001020222110000097712000001984520770MENDOZA VILLEGAS, MERCEDES LUISA        0011690467003291  
001020435680000089283000003112840770LEAL GONZALEZ, DUILIO RAMON             0011708908003291  
001020222100000102979000003430030770ANDERSON RABINES, VANESSA VALENTINA     0011739404003291  
001020453480000143129000003947180770DIAZ GONZALEZ, MAYERLIN JOSE            0011773379003291  
001020222140000097738000003372970770CASTILLO RIVERO, JAVIER DARIO           0011792592003291  
001020127650000044752000001575490770ARVELAEZ CIENFUEGOS, HERMELIN COROMOTO  0011924604003291  
001020457700000091093000004503870770BENAVIDES SALINAS, BORIS BENIGNO        0011983930003291  
001020224830000178657000003295910770LINARES MATHEUS, MARIA VICTORIA         0012042341003291  
001020479820000051020000005586390770MUÑOZ VALENCIA, ORLEANA ISABEL          0012055881003291  
001020222100000097783000001818700770URBINA PEREZ, MADELEIN SULIMA           0012061656003291  
001020222120000097806000001415480770BOSET MORALES, WILMER RAFAEL            0012062839003291  
001020222140000097819000003872480770GOMEZ VALDIRIO, HAYDEE RAMONA           0012085077003291  
001020102120000041425000001310470770BLANCO OVIEDO, CARLINA DAYANA           0012096441003291  
001020350370000079293000002413100770FERNANDEZ HENRIQUEZ, LILA               0012119590003291  
001020222140000097822000002163610770GUTIERREZ TORO, EYISTA DEL CARMEN       0012259968003291  
001020228130000106551000004245480770BRITO DIAZ, ADELAIDANGELICA TERESITA    0012267986003291  
001020222180000097851000002644630770FUENTES ULLOA, FRANCISCO JAVIER         0012377209003291  
001020222100000097864000001813810770ZAMBRANO DE VIÑA, LEISLA CAROLINA       0012386761003291  
001020383080000135946000006381310770YANEZ DE ROMERO, ANA KARINA             0012393936003291  
001020870090000006101000001548320770CORREA, LUIS ALEXANDER                  0012476793003291  
001020350310100074105000001493410770MARTINEZ INOJOSA, YESICA DEL VALLE      0012480015003291  
001020350380100074678000001548320770GUERRA GRANADO, JOSE JAVIER             0012481991003291  
001020221300000241241000002336710770CASTILLO VELASQUEZ, MARIA CAROLINA      0012548777003291  
001020222140000097903000001660130770TERAN MOLINA, LUWING MICHEL             0012563416003291  
001020466650000086477000005260010770FIGUEROA BETANCOURT, JOSE LUIS          0012584594003291  
001020222160000097916000002861710770GRUBER BELLO, ROBERT RAFAEL             0012645968003291  
001020453410000143161000002242280770MENDOZA, XIOMARA MARGARITA              0012653783003291  
001020222130000097330000003059830770LEZAMA BLONDELL, MARIANELA              0012657514003291  
001020222170000097356000003811860770VILLEGAS, ARELYS                        0012688505003291  
001020369480000077871000001764800770MONTILLA, EDGAR EDUARDO                 0012718287003291  
001020151910000091679000004331730770ROSALES CARRERO, MAIGUALIDA             0012800256003291  
001020304000000086752000002557600770BUSTAMANTE MERCHAN, RENNY ROLANDO       0012800561003291  
001020350390000079390000001548320770LANDAETA, LUIS ARMANDO                  0012810632003291  
001020489510000040921000001505640770HURTADO, JHONY                          0012813281003291  
001020435620000089322000003564490770RIVAS PAREDES, PEDRO ALEXANDER          0012836795003291  
001020222190000097372000001639360770MUNDARAIN MENDOZA, RAUL ANTONIO         0012864151003291  
001020222120000097398000002901500770LUCENA GONZALEZ, BLANCA MILADYS         0012939129003291  
001020461500000037581000001548320770DUARTE, MERCEDES ELENA                  0012952173003291  
001020335080000042563000002199600770GUERRA ROJAS, NORELYS DEL CARMEN        0012956353003291  
001020501810000541598000001548320770MERLUZZI MEDINA, JOE RUDY               0012963176003291  
001020213250000017161000002347370770PINZON ASUAJE, ALVARO JAVIER            0012983731003291  
001020215910000036139000003563560770RAMOS, TOMAS ENRIQUE                    0012994327003291  
001020350390000079387000001442500770CASTILLO VASQUEZ, LUIS ROBERTO          0013044660003291  
001020369410000077897000003788680770PACHECO CASTELLANOS, NEYBER NAYIBE      0013048345003291  
001020690190000030326000001461170770BRITO COLMENARES, DANIEL ANTONIO        0013070371003291  
001020222150000097424000004153430770PULIDO, ANGELICA MARIA                  0013086272003291  
001020328710000042754000002616010770VILCHEZ GONZALEZ, MARIA ALEJANDRA       0013101813003291  
001020251510000062763000001929430770ALVARADO GARCIA, MARIA ALEJANDRA        0013113245003291  
001020222170000097437000004697640770ROMERO GOMEZ, HUGO ALEXANDER            0013115148003291  
001020222170000097440000001630810770MENDOZA ROMERO, ARACELIS MILAGROS       0013128829003291  
001020222190000097453000004366670770ARIAS COLMENARES, YAMEL YARIBEL         0013133441003291  
001020219110000142654000002078440770BELANDRIA PEREZ, CHARLIE RAIMAR         0013146684003291  
001020222120000097479000001487580770OBREGON GONZALEZ, JENNY CAROLINA        0013161000003291  
001020151930000091705000002805450770MENDOZA MARTINEZ, GLEDY DEL VALLE       0013229062003291  
001020286880000114860000001507360770ESCALONA BLANCO, KERDIS MANUEL          0013246365003291  
001020222160000104265000014640470770REINA DIAZ, YANETHLEYSY                 0013246723003291  
001020501880000560825000005089290770RIVERO BARRADA, DANILO ANTONIO          0013265182003291  
001020211680000142269000004332020770AMARO RODRIGUEZ, WILLIAMS JOSE          0013265798003291  
001020222120000097482000003652180770CUEVAS CARRASQUEL, EDMUNDO ENRIQUE      0013290725003291  
001020222150000097505000003420010770GONZALEZ GONZALEZ, MARVY YULAY          0013375962003291  
001020222170000097518000001678210770CHACON HERRERA, LEONARDO RAFAEL         0013463647003291  
001020346570000120265000005174650770ROJAS MEJIAS, ZULEIMA DEL CARMEN        0013484760003291  
001020435640000089335000003801580770CARO QUINTERO, MIRIAM KARINA            0013500615003291  
001020435660000089348000001972740770LINARES COLOMBO, YOHANA MERCEDES        0013592389003291  
001020151990000091750000002797680770ROJAS, YIL MARY                         0013648670003291  
001020497640000176905000005346180770LLOVERA SEQUERA, DOLLY NATACHA          0013696093003291  
001020101260000111863000001846860770RAMOS DIAZ, DENNYS RICARDO              0013697955003291  
001020501810000529578000004306690770ROA TUPANO, HENRY ALEXANDER             0013749325003291  
001020222110000097550000004771120770BARRIOS PEREZ, RICHARD JOSE             0013769490003291  
001020151910000091763000003861810770FIGUEREDO ROJAS, VICTOR JOSE            0013804570003291  
001020466680000086503000002367510770CARREÑO RATTIA, CLAUDIO JOSE            0013938992003291  
001020369420000077907000002174020770BRICEÑO GONZALEZ, EHIRO DAVID           0013950607003291  
001020222180000099972000005027200770FURTADO RAMOS, SUSANA MARIA             0013968035003291  
001020112860000055275000003339020770GOMEZ CARDENAS, MILLARD ALY             0014003229003291  
001020222100000099985000002088500770MORENO AGUILAR, JUAN CARLOS             0014058173003291  
001020387270000071673000003229590770MARTINEZ MARTINEZ, NORELYS DE LOURDES   0014081555003291  
001020387290000071686000002315790770RONDON SANCHEZ, ADAN MOISES             0014132001003291  
001020228150000169776000002172990770MENDEZ ZAMBRANO, JAIME ALBERTO          0014154505003291  
001020460790000096577000001893070770OBREGON GONZALEZ, JHONNY RAFAEL         0014156675003291  
001020222160000100023000003086200770VILLARROEL BRAZON, YUSEIKA JOSEFINA     0014196621003291  
001020598180000029832000002211970770RIOS ROMERO, JESUS ANTONIO              0014253588003291  
001020222180000100036000001761720770RODRIGUEZ ANTHONY, INYOMAR ERNESTO      0014277401003291  
001020146230000078430000004046010770GUEVARA PINTO, MARCOS PISTORIUS         0014296484003291  
001020222100000100049000003128060770MENDOZA MEDINA, FREDDY LEONARDO         0014368025003291  
001020460770000008824000004513340770CARABALLO GUTIERREZ, ROSMARY REGINA     0014384914003291  
001020222110000100065000003256100770ANTICH SEQUERA, JOSEPH RAFAEL           0014470062003291  
001020453480000143213000002284970770URBANEJA, EDWIN RAFAEL                  0014508031003291  
001020222130000100081000002961770770ARISMENDY, MIRIAM COROMOTO              0014518367003291  
001020501870000493345000001827350770RAMIREZ ZAPATA, MAILIN ERLEIDIZ         0014586126003291  
001020346590000120278000002321400770DELGADO DELGADO, MARIA YOLIMAR          0014600907003291  
001020364390000066950000003788680770HERNANDEZ RANGEL, MARCIA COROMOTO       0014638575003291  
001020222150000100094000018159410770MONTILLA PEÑA, WILLIE JOSE              0014680944003291  
001020167580000022428000001591000770PAEZ, JOSE ISABEL                       0014683493003291  
001020346590000120281000003861810770ARIAS GARCIA, GRISELDA MILAGROS         0014732490003291  
001020222150000099710000002042820770RAMIREZ SOLORZANO, ADRIANA              0014756583003291  
001020133170000040882000001321270770TABLERO HERRERA, EVELYN NAIROBYS        0014768349003291  
001020466610000086529000003745990770AGUILAR MENDOZA, CARLOS LUIS            0014812792003291  
001020466610000086532000002747200770DELGADO GONZALEZ, JUAN CARLOS           0014814241003291  
001020222170000099723000002498460770BUSTOS RODRIGUEZ, JOSE ENRIQUE          0014891378003291  
001020222190000099736000004117910770VIDAL LINCHE, GABRIELA VANESSA          0014955438003291  
001020222110000099749000002647330770PRESILLA QUINTANA, OSCAR JOSE           0015020659003291  
001020222110000099752000002358240770QUIROGA RODRIGUEZ, LUIS BENIGNO         0015023817003291  
001020222120000099765000001189780770HIDALGO TINEO, JOSE MANUEL              0015039113003291  
001020222160000099794000002642960770VASQUEZ VARGAS, BRELBY YORMETY          0015123184003291  
001020222170000099804000002050630770REQUENA RANGEL, YILMER JULIAN           0015147822003291  
001020222170000102720000001225980770ESPINOZA, FRANCIS CAROLINA              0015168233003291  
001020222110000099833000002298660770JIMENEZ PEREZ, MAKIEL LEONOR            0015168872003291  
001020222120000099846000002596390770GAMEZ CONTRERAS, DIUBENE JOSE           0015169126003291  
001020151960000091239000003703320770SOSA MENDEZ, LEDDY PAULA                0015174408003291  
001020747930000005979000003495070770TORRES TORRES, LUIS ENRIQUE             0015216107003291  
001020222140000099859000004217700770LINARES ARIAS, JESUS ALBERTO            0015223729003291  
001020358970000223227000003337370770ALVAREZ CASTILLO, MARY BELL             0015275161003291  
001020525530000021704000003530840770DIAZ HERNANDEZ, MARIFEE LARITZA         0015326226003291  
001020466620000087722000004248150770TARIBA VARGAS, DANIEL OSWALDO           0015359623003291  
001020222160000099875000003344220770SIMANCAS ARENAS, DULCE MARIA            0015366055003291  
001020222180000099891000001766970770GONZALEZ BORGES, HENRY ORLANDO          0015368440003291  
001020140310000005571000004895600770MORA TOVAR, YVAMIR JOSE                 0015374898003291  
001020222110000099914000001969000770FIGUEROA ROMERO, GLENCY YENEY           0015378515003291  
001020222120000099927000003339810770LAZO GONZALEZ, YERI ENRIQUE             0015441176003291  
001020350310000079811000001548320770MARTINEZ ROJAS, CARLOS JAVIER           0015471960003291  
001020457740000091129000001880190770CAMPO LARGO, AUGUSTO LAURIANO           0015499486003291  
001020222120000099930000002024780770IZAGUIRRE VENALES, ALEJANDRO JOSE       0015586883003291  
001020234510000116978000002257960770ACERO CADETE, CARLOS JAVIER             0015615232003291  
001020169120000087081000002169290770MONTILLA CHAVEZ, DANY JESUS             0015645006003291  
001020350310000082031000001591000770CASTRO VASQUEZ, JOSE ANTONIO            0015734736003291  
001020383010000092005000002620270770BANDE OLIVO, DANNY DIXON                0015791071003291  
001020222110000099590000001200390770MARTINEZ ALVAREZ, ELIS NAYARITH         0015792628003291  
001020222110000099600000001209830770DELGADO BRICEÑO, YORMISON REINIER       0015805398003291  
001020617180000035156000004544200770MONTES RICARDI, SANDRA CAROLINA         0015815375003291  
001020215910000040345000004201450770BRICEÑO SILVA, GUILLERMO ANTONIO        0016011182003291  
001020222170000099639000002642960770BARRIOS SOLORZANO, ADOLFO               0016023196003291  
001020745210000003751000002557600770SANCHEZ PEÑA, JOSE RAFAEL               0016038767003291  
001020222190000099655000003521070770PIÑERO FLORES, ROSEMARY ANTONIETA       0016075231003291  
001020222110000099668000002278470770BOLIVAR PINO, VICTOR MANUEL             0016082934003291  
001020222120000099684000002189810770MONSALVE BERMUDEZ, TONY JOSE            0016097071003291  
001020222140000102694000002332680770GOMEZ CARDENAS, GERMAN JOSE             0016174205003291  
001020151940000091307000002235070770ROJAS RIVAS, SANDRA MARGARITA           0016200936003291  
001020740150000000505000004586100770DOMINGUEZ BALLESTEROS, CARMEN YASMIN    0016228057003291  
001020322870000052951000001234560770ORDOÑEZ BERNAL, JHON HIPOLITO           0016342728003291  
001020336850000115937000001522460770HEREDIA, FRANKLIN                       0016384731003291  
001020328710000043847000002642960770SUAREZ RAMIREZ, JUAN CARLOS             0016410499003291  
001020222160000099312000001943830770PARADA MARTINEZ, NELSY SUYIN            0016413518003291  
001020858160000014135000005538580770GALINDEZ GONZALEZ, YAILMAR              0016425388003291  
001020222100000099338000005462540770MARTINEZ ARDILA, ONANDIA ISABEL         0016430365003291  
001020193440000048363000002722030770MORENO PEÑA, EREILYS FIDELINA           0016451347003291  
001020461590000037170000004458830770MACHADO DIAZ, EMMANUEL RAFAEL           0016452359003291  
001020228140000174596000002327740770GONZALEZ RAMIREZ, YOSMARY NATHALY       0016497948003291  
001020435640000089416000002962620770GUEDEZ TORRES, DAYANA SOLERY            0016515116003291  
001020692810000042408000004961240770SANCHEZ COLMENAREZ, HECTOR VALENTIN     0016597333003291  
001020213210107701836000002455770770MORETT GUANIQUE, MAURY KATHERINE        0016598472003291  
001020222150000099383000000714740770HERNANDEZ CASTRO, AIRLYN MARIA          0016599853003291  
001020222180000099406000001303290770GAMBOA, ROSAURA YAMILET                 0016647737003291  
001020475540000091792000002254650770HENRIQUES RUH, ELIZABETH                0016725095003291  
001020151940000091310000001888630770CHOURIO VIELMA, NESTOR LUIS             0016742778003291  
001020167570000022101000001591000770ROMERO VIERA, ELVIS ALEXANDER           0016761263003291  
001020167590100029822000001455080770TOVAR VIERA, SOL ANGELICA               0016762304003291  
001020497610000172718000001462970770MONTAÑA TOTUMO, EDMUNDO ANTONIO         0016806848003291  
001020501810002826525000001686850770CENTENO ORTIZ, ENVER JOSE               0016852533003291  
001020501810000501884000003096020770BRICEÑO APONTE, LUISANA                 0016875517003291  
001020501840000479987000001749730770BRICEÑO, EVA MARIA                      0016903466003291  
001020364320000066976000002797680770MONTENEGRO LEON, ISBELIS ISABEL         0016994929003291  
001020346580000123738000001890650770PEÑA YEPEZ, HENRY JOSE                  0017002190003291  
001020346590000120362000002991370770SANABRIA HURTADO, GRISETT KISMAR        0017002237003291  
001020501870000500102000004673240770CABELLO VELASQUEZ, YOSURY DEL VALLE     0017060144003291  
001020501840000538844000002188220770CHACON DIAZ, INES GERALDINE             0017199624003291  
001020222170000099480000002708850770ROMERO BRAZON, JOSE MIGUEL              0017218073003291  
001020435660000089513000003198640770URBANO ROJAS, LAURA YAJAIRA             0017290209003291  
001020222100000099503000008371780770OROPEZA PEREZ, YORMAN EDUARDO           0017299160003291  
001020151900000091352000002557010770RUCCI MORA, JOSE MANUEL                 0017322588003291  
001020222110000099516000003836520770APONTE RONDON, BELKIS JHOANA            0017372875003291  
001020635930000048046000010263290770CASTILLO OCHOA, ZOILINAR MERCEDES       0017381737003291  
001020501810000530978000002346740770TOISSE PADILLA, MARYCEL COROMOTO        0017483618003291  
001020339220000083522000003257390770CEDEÑO CASTILLO, DIDIANA JOSEFINA       0017629724003291  
001020457780000104362000002260550770DE TIBERGE CARRASQUEL, TAHYMAR PAOLA    0017675848003291  
001020457760000104511000002252100770ZURITA PULIDO, GUSTAVO JOSE             0017676455003291  
001020222190000099574000004174050770MANEIRO MORENO, ANDERSON MIGUEL         0017829133003291  
001020501850000519122000002458900770CHACON IRIARTE, ALIANI TIBISAY          0017958364003291  
001020235320000189455000002470060770BAPTISTA BLANCO, VICTOR JOSE            0018002090003291  
001020501870000510516000002965200770LOPEZ SALAZAR, YOSMARY VIRGINIA         0018043464003291  
001020501860000492401000002391980770BOGADO BARCAZAR, JHOSELY CAROLINA       0018265798003291  
001020528030000017297000003192320770VILLACIS MONASTERIO, CARLOS GABRIEL     0018304617003291  
001020128450101289963000003691090770DE LA CONCHA ZAMORA, MARILUNA BELLA     0018318816003291  
001020365180000091271000002374190770ELIAS SANCHEZ, RUBZAY KARINA            0018334632003291  
001020215920000135535000002013040770GUTIERREZ PEREZ, KATHERINE MARIELA      0018473912003291  
001020358970000222286000001900910770GUERRA REBOLLEDO, MERCEDES ELENA        0018488913003291  
001020222190000118785000001914780770ABACHE LANDAETA, ANA ESTHER             0018528218003291  
001020151930000091381000001613220770MARQUEZ MOLINA, YANETH CAROLINA         0018579760003291  
001020123370000048185000004095850770MUÑOZ DIAZ, YESSICA YUSMARY             0018604506003291  
001020350390000079471000001548320770PEREZ QUERALEZ, YULIANNI CAROLINA       0018609862003291  
001020222140000099215000014625760770FERNANDEZ VERA, YUSBEYSI ANDREA         0018709623003291  
001020222120000120579000001808100770TORRES CABRERA, LAURA VIRGINIA          0018709688003291  
001020501820000614645000004543420770RODRIGUEZ RONDON, EVIMAR YSABEL         0018749533003291  
001020435650000100146000002557600770PIMENTEL FIGUEROA, DAYALEJ VAYERLIN     0018772730003291  
001020501830000490254000003124970770MARTINEZ HERNANDEZ, NEPTALI RAFAEL      0018786206003291  
001020501810000512187000001294670770MARCANO QUIJADA, JOSE LUIS              0018788926003291  
001020222160000099231000004947600770ANGEL VELASQUEZ, ALEJANDRA CAROLINA     0018825650003291  
001020222180000099244000003432890770RODRIGUEZ HERNANDEZ, MILEIDY MADELIN    0018841635003291  
001020346540000120566000002685650770RIVERO TORO, SILENE                     0018891504003291  
001020222160000113984000001329240770ESCOBAR FIGUEROA, KEVIN DAVID           0018934635003291  
001020364330000067195000001813920770TORCATTY HERNANDEZ, YULIANNY NATHALY    0018973582003291  
001020222100000099257000001236870770HERNANDEZ BRICEÑO, GREISON AGUSTIN      0019066811003291  
001020229990000150086000001296300770PEREZ HUIZI, EDISON DEMIAN              0019163474003291  
001020501810002860701000002323490770MARCANO BERBES, RAFAEL ALBERTO          0019227230003291  
001020441110000094579000002133400770CACERES GARCIA, CARMEN ADRIANA          0019236516003291  
001020501850000492388000001938960770ARTAHONA BLANCO, RODOLFO ENRIQUE        0019273480003291  
001020869610000027672000010443250770ARANGO TORRES, FERNANDO                 0019365839003291  
001020350390100074106000001548320770PAEZ MARQUEZ, JUAN CRISPIN              0019594499003291  
001020221330000383280000004003330770MARQUES CHAVEZ, ZEUS JAVIER             0019777368003291  
001020167550000021791000001717520770CAMPOS CAIRO, AMERLIS DAYANA            0019863256003291  
001020221330000310619000001468640770FIGUEREDO OROPEZA, ROSA VIRGINIA        0019868440003291  
001020526380000034212000002173320770BORRERO ROJAS, GABRIEL JESUS            0020129642003291  
001020151950000091394000003989860770CIFUENTES TOLOSA, MARCELA PATRICIA      0020134258003291  
001020228180000142308000001248900770SAEZ, CARMEN JUVEIDI                    0020399391003291  
001020222190000102571000001227950770GUERRERO MILANO, FELIPE ENRIQUE         0020639775003291  
001020688090000029641000001307590770VALERA ANGEL, DARWIN JOSE               0020802290003291  
001020116150000038726000001465820770HERNANDEZ GAMEZ, CARMEN ARIANA          0020817271003291  
001020350310000078553000001548320770BLANCO TOVAR, VICK MARY                 0021026624003291  
001020241810000095413000001462970770CONTRERAS FERNANDEZ, JOSE ALFREDO       0021281591003291  
001020161610000066811000001462970770BUSTAMANTE GODOY, WILSON ALEJANDRO      0021284170003291  
001020350360000125147000001722390770DIAZ PINTO, EDINXON DOMINDO             0022549029003291  
001020723110000004909000001340870770ORTEGA AVILA, VICTOR MANUEL             0022340429003291  
001020461500000036883000002190440770BORJA MORENO, SANDRA MILENA             0022384267003291  
001020350360000082073000001266350770GARCIA VARGAS, BIBIANO ANTONIO          0025179068003291  
001020222130000099286000001385740770PALACIOS MENA, ANA MERCEDES             0025214716003291  
001020429130000105358000003874040770PERALES MUÑOZ, BRUNO FERMIN             0004694749003291  
