HMINISTERIO DEL PODER POPULAR PARA LAS CO010205522800000499480105/06/12000000096525003291 
001023456780000002345000003217500770DIAZ, ESTHER                            0010979893003291  
001023456780000002345000003217500770DIAZ, ESTHER                            0010979893003291  
001023456780000002345000003217500770DIAZ, ESTHER                            0010979893003291  
